{"abi":[{"type":"constructor","inputs":[],"stateMutability":"nonpayable"},{"type":"receive","stateMutability":"payable"},{"type":"function","name":"balances","inputs":[{"name":"","type":"address","internalType":"address"}],"outputs":[{"name":"","type":"uint256","internalType":"uint256"}],"stateMutability":"view"},{"type":"function","name":"deposit","inputs":[],"outputs":[],"stateMutability":"payable"},{"type":"function","name":"emergencyDrain","inputs":[],"outputs":[],"stateMutability":"nonpayable"},{"type":"function","name":"getBalance","inputs":[],"outputs":[{"name":"","type":"uint256","internalType":"uint256"}],"stateMutability":"view"},{"type":"function","name":"owner","inputs":[],"outputs":[{"name":"","type":"address","internalType":"address"}],"stateMutability":"view"},{"type":"function","name":"toWei","inputs":[{"name":"ethAmount","type":"uint256","internalType":"uint256"}],"outputs":[{"name":"","type":"uint256","internalType":"uint256"}],"stateMutability":"pure"},{"type":"function","name":"withdraw","inputs":[{"name":"amount","type":"uint256","internalType":"uint256"}],"outputs":[],"stateMutability":"nonpayable"}],"bytecode":{"object":"0x6080604052348015600e575f5ffd5b50335f5f6101000a81548173ffffffffffffffffffffffffffffffffffffffff021916908373ffffffffffffffffffffffffffffffffffffffff1602179055506108ab8061005b5f395ff3fe608060405260043610610073575f3560e01c80632e1a7d4d1161004d5780632e1a7d4d1461014c578063669dafe8146101745780638da5cb5b146101b0578063d0e30db0146101da576100cc565b806312065fe0146100d057806327e235e3146100fa5780632caac08b14610136576100cc565b366100cc573460015f3373ffffffffffffffffffffffffffffffffffffffff1673ffffffffffffffffffffffffffffffffffffffff1681526020019081526020015f205f8282546100c49190610558565b925050819055005b5f5ffd5b3480156100db575f5ffd5b506100e46101e4565b6040516100f1919061059a565b60405180910390f35b348015610105575f5ffd5b50610120600480360381019061011b9190610611565b610228565b60405161012d919061059a565b60405180910390f35b348015610141575f5ffd5b5061014a61023d565b005b348015610157575f5ffd5b50610172600480360381019061016d9190610666565b610331565b005b34801561017f575f5ffd5b5061019a60048036038101906101959190610666565b61044b565b6040516101a7919061059a565b60405180910390f35b3480156101bb575f5ffd5b506101c4610467565b6040516101d191906106a0565b60405180910390f35b6101e261048b565b005b5f60015f3373ffffffffffffffffffffffffffffffffffffffff1673ffffffffffffffffffffffffffffffffffffffff1681526020019081526020015f2054905090565b6001602052805f5260405f205f915090505481565b5f5f9054906101000a900473ffffffffffffffffffffffffffffffffffffffff1673ffffffffffffffffffffffffffffffffffffffff163373ffffffffffffffffffffffffffffffffffffffff16146102cb576040517f08c379a00000000000000000000000000000000000000000000000000000000081526004016102c290610713565b60405180910390fd5b5f5f9054906101000a900473ffffffffffffffffffffffffffffffffffffffff1673ffffffffffffffffffffffffffffffffffffffff166108fc4790811502906040515f60405180830381858888f1935050505015801561032e573d5f5f3e3d5ffd5b50565b8060015f3373ffffffffffffffffffffffffffffffffffffffff1673ffffffffffffffffffffffffffffffffffffffff1681526020019081526020015f205410156103b1576040517f08c379a00000000000000000000000000000000000000000000000000000000081526004016103a89061077b565b60405180910390fd5b8060015f3373ffffffffffffffffffffffffffffffffffffffff1673ffffffffffffffffffffffffffffffffffffffff1681526020019081526020015f205f8282546103fd9190610799565b925050819055503373ffffffffffffffffffffffffffffffffffffffff166108fc8290811502906040515f60405180830381858888f19350505050158015610447573d5f5f3e3d5ffd5b5050565b5f670de0b6b3a76400008261046091906107cc565b9050919050565b5f5f9054906101000a900473ffffffffffffffffffffffffffffffffffffffff1681565b5f34116104cd576040517f08c379a00000000000000000000000000000000000000000000000000000000081526004016104c490610857565b60405180910390fd5b3460015f3373ffffffffffffffffffffffffffffffffffffffff1673ffffffffffffffffffffffffffffffffffffffff1681526020019081526020015f205f8282546105199190610558565b92505081905550565b5f819050919050565b7f4e487b71000000000000000000000000000000000000000000000000000000005f52601160045260245ffd5b5f61056282610522565b915061056d83610522565b92508282019050808211156105855761058461052b565b5b92915050565b61059481610522565b82525050565b5f6020820190506105ad5f83018461058b565b92915050565b5f5ffd5b5f73ffffffffffffffffffffffffffffffffffffffff82169050919050565b5f6105e0826105b7565b9050919050565b6105f0816105d6565b81146105fa575f5ffd5b50565b5f8135905061060b816105e7565b92915050565b5f60208284031215610626576106256105b3565b5b5f610633848285016105fd565b91505092915050565b61064581610522565b811461064f575f5ffd5b50565b5f813590506106608161063c565b92915050565b5f6020828403121561067b5761067a6105b3565b5b5f61068884828501610652565b91505092915050565b61069a816105d6565b82525050565b5f6020820190506106b35f830184610691565b92915050565b5f82825260208201905092915050565b7f4e6f74206f776e657200000000000000000000000000000000000000000000005f82015250565b5f6106fd6009836106b9565b9150610708826106c9565b602082019050919050565b5f6020820190508181035f83015261072a816106f1565b9050919050565b7f496e73756666696369656e742062616c616e63650000000000000000000000005f82015250565b5f6107656014836106b9565b915061077082610731565b602082019050919050565b5f6020820190508181035f83015261079281610759565b9050919050565b5f6107a382610522565b91506107ae83610522565b92508282039050818111156107c6576107c561052b565b5b92915050565b5f6107d682610522565b91506107e183610522565b92508282026107ef81610522565b915082820484148315176108065761080561052b565b5b5092915050565b7f53656e6420736f6d6520455448000000000000000000000000000000000000005f82015250565b5f610841600d836106b9565b915061084c8261080d565b602082019050919050565b5f6020820190508181035f83015261086e81610835565b905091905056fea2646970667358221220438b53aaad422f9a217f8622471e848e694b66587a8a50682bb809a61b66278064736f6c63430008230033","linkReferences":{}},"methodIdentifiers":{"balances(address)":"27e235e3","deposit()":"d0e30db0","emergencyDrain()":"2caac08b","getBalance()":"12065fe0","owner()":"8da5cb5b","toWei(uint256)":"669dafe8","withdraw(uint256)":"2e1a7d4d"},"id":0}