{"abi":[{"type":"constructor","inputs":[],"stateMutability":"nonpayable"},{"type":"receive","stateMutability":"payable"},{"type":"function","name":"balances","inputs":[{"name":"","type":"address","internalType":"address"}],"outputs":[{"name":"","type":"uint256","internalType":"uint256"}],"stateMutability":"view"},{"type":"function","name":"deposit","inputs":[],"outputs":[],"stateMutability":"payable"},{"type":"function","name":"emergencyDrain","inputs":[],"outputs":[],"stateMutability":"nonpayable"},{"type":"function","name":"getBalance","inputs":[],"outputs":[{"name":"","type":"uint256","internalType":"uint256"}],"stateMutability":"view"},{"type":"function","name":"owner","inputs":[],"outputs":[{"name":"","type":"address","internalType":"address"}],"stateMutability":"view"},{"type":"function","name":"toWei","inputs":[{"name":"ethAmount","type":"uint256","internalType":"uint256"}],"outputs":[{"name":"","type":"uint256","internalType":"uint256"}],"stateMutability":"pure"},{"type":"function","name":"withdraw","inputs":[{"name":"amount","type":"uint256","internalType":"uint256"}],"outputs":[],"stateMutability":"nonpayable"}],"bytecode":{"object":"0x6080604052348015600e575f5ffd5b50335f5f6101000a81548173ffffffffffffffffffffffffffffffffffffffff021916908373ffffffffffffffffffffffffffffffffffffffff160217905550610a238061005b5f395ff3fe608060405260043610610073575f3560e01c80632e1a7d4d1161004d5780632e1a7d4d1461014c578063669dafe8146101745780638da5cb5b146101b0578063d0e30db0146101da576100cc565b806312065fe0146100d057806327e235e3146100fa5780632caac08b14610136576100cc565b366100cc573460015f3373ffffffffffffffffffffffffffffffffffffffff1673ffffffffffffffffffffffffffffffffffffffff1681526020019081526020015f205f8282546100c49190610627565b925050819055005b5f5ffd5b3480156100db575f5ffd5b506100e46101e4565b6040516100f19190610669565b60405180910390f35b348015610105575f5ffd5b50610120600480360381019061011b91906106e0565b610228565b60405161012d9190610669565b60405180910390f35b348015610141575f5ffd5b5061014a61023d565b005b348015610157575f5ffd5b50610172600480360381019061016d9190610735565b61039b565b005b34801561017f575f5ffd5b5061019a60048036038101906101959190610735565b61051a565b6040516101a79190610669565b60405180910390f35b3480156101bb575f5ffd5b506101c4610536565b6040516101d1919061076f565b60405180910390f35b6101e261055a565b005b5f60015f3373ffffffffffffffffffffffffffffffffffffffff1673ffffffffffffffffffffffffffffffffffffffff1681526020019081526020015f2054905090565b6001602052805f5260405f205f915090505481565b5f5f9054906101000a900473ffffffffffffffffffffffffffffffffffffffff1673ffffffffffffffffffffffffffffffffffffffff163373ffffffffffffffffffffffffffffffffffffffff16146102cb576040517f08c379a00000000000000000000000000000000000000000000000000000000081526004016102c2906107e2565b60405180910390fd5b5f4790505f5f5f9054906101000a900473ffffffffffffffffffffffffffffffffffffffff1673ffffffffffffffffffffffffffffffffffffffff16826040516103149061082d565b5f6040518083038185875af1925050503d805f811461034e576040519150601f19603f3d011682016040523d82523d5f602084013e610353565b606091505b5050905080610397576040517f08c379a000000000000000000000000000000000000000000000000000000000815260040161038e9061088b565b60405180910390fd5b5050565b8060015f3373ffffffffffffffffffffffffffffffffffffffff1673ffffffffffffffffffffffffffffffffffffffff1681526020019081526020015f2054101561041b576040517f08c379a0000000000000000000000000000000000000000000000000000000008152600401610412906108f3565b60405180910390fd5b8060015f3373ffffffffffffffffffffffffffffffffffffffff1673ffffffffffffffffffffffffffffffffffffffff1681526020019081526020015f205f8282546104679190610911565b925050819055505f3373ffffffffffffffffffffffffffffffffffffffff16826040516104939061082d565b5f6040518083038185875af1925050503d805f81146104cd576040519150601f19603f3d011682016040523d82523d5f602084013e6104d2565b606091505b5050905080610516576040517f08c379a000000000000000000000000000000000000000000000000000000000815260040161050d9061088b565b60405180910390fd5b5050565b5f670de0b6b3a76400008261052f9190610944565b9050919050565b5f5f9054906101000a900473ffffffffffffffffffffffffffffffffffffffff1681565b5f341161059c576040517f08c379a0000000000000000000000000000000000000000000000000000000008152600401610593906109cf565b60405180910390fd5b3460015f3373ffffffffffffffffffffffffffffffffffffffff1673ffffffffffffffffffffffffffffffffffffffff1681526020019081526020015f205f8282546105e89190610627565b92505081905550565b5f819050919050565b7f4e487b71000000000000000000000000000000000000000000000000000000005f52601160045260245ffd5b5f610631826105f1565b915061063c836105f1565b9250828201905080821115610654576106536105fa565b5b92915050565b610663816105f1565b82525050565b5f60208201905061067c5f83018461065a565b92915050565b5f5ffd5b5f73ffffffffffffffffffffffffffffffffffffffff82169050919050565b5f6106af82610686565b9050919050565b6106bf816106a5565b81146106c9575f5ffd5b50565b5f813590506106da816106b6565b92915050565b5f602082840312156106f5576106f4610682565b5b5f610702848285016106cc565b91505092915050565b610714816105f1565b811461071e575f5ffd5b50565b5f8135905061072f8161070b565b92915050565b5f6020828403121561074a57610749610682565b5b5f61075784828501610721565b91505092915050565b610769816106a5565b82525050565b5f6020820190506107825f830184610760565b92915050565b5f82825260208201905092915050565b7f4e6f74206f776e657200000000000000000000000000000000000000000000005f82015250565b5f6107cc600983610788565b91506107d782610798565b602082019050919050565b5f6020820190508181035f8301526107f9816107c0565b9050919050565b5f81905092915050565b50565b5f6108185f83610800565b91506108238261080a565b5f82019050919050565b5f6108378261080d565b9150819050919050565b7f5472616e73666572206661696c656400000000000000000000000000000000005f82015250565b5f610875600f83610788565b915061088082610841565b602082019050919050565b5f6020820190508181035f8301526108a281610869565b9050919050565b7f496e73756666696369656e742062616c616e63650000000000000000000000005f82015250565b5f6108dd601483610788565b91506108e8826108a9565b602082019050919050565b5f6020820190508181035f83015261090a816108d1565b9050919050565b5f61091b826105f1565b9150610926836105f1565b925082820390508181111561093e5761093d6105fa565b5b92915050565b5f61094e826105f1565b9150610959836105f1565b9250828202610967816105f1565b9150828204841483151761097e5761097d6105fa565b5b5092915050565b7f53656e6420736f6d6520455448000000000000000000000000000000000000005f82015250565b5f6109b9600d83610788565b91506109c482610985565b602082019050919050565b5f6020820190508181035f8301526109e6816109ad565b905091905056fea26469706673582212202b29483ef35956d31c07655d849266268414b5f684f55e7cf5c6d1ffaa13761764736f6c63430008230033","linkReferences":{}},"methodIdentifiers":{"balances(address)":"27e235e3","deposit()":"d0e30db0","emergencyDrain()":"2caac08b","getBalance()":"12065fe0","owner()":"8da5cb5b","toWei(uint256)":"669dafe8","withdraw(uint256)":"2e1a7d4d"},"id":0}