{"abi":[{"type":"function","name":"favouriteNumber","inputs":[],"outputs":[{"name":"","type":"uint256","internalType":"uint256"}],"stateMutability":"view"},{"type":"function","name":"store","inputs":[{"name":"_favouriteNumber","type":"uint256","internalType":"uint256"}],"outputs":[],"stateMutability":"nonpayable"}],"bytecode":{"object":"0x608060405260015f5f6101000a81548160ff02191690831515021790555060018055601e60025f6101000a81548163ffffffff021916908360030b63ffffffff1602179055506040518060400160405280600881526020017f6869206c6577697300000000000000000000000000000000000000000000000081525060039081610089919061033d565b50735b38da6a701c568545dcfcb03fcb875f56beddc460045f6101000a81548173ffffffffffffffffffffffffffffffffffffffff021916908373ffffffffffffffffffffffffffffffffffffffff1602179055503480156100e9575f5ffd5b5061040c565b5f81519050919050565b7f4e487b71000000000000000000000000000000000000000000000000000000005f52604160045260245ffd5b7f4e487b71000000000000000000000000000000000000000000000000000000005f52602260045260245ffd5b5f600282049050600182168061016a57607f821691505b60208210810361017d5761017c610126565b5b50919050565b5f819050815f5260205f209050919050565b5f6020601f8301049050919050565b5f82821b905092915050565b5f600883026101df7fffffffffffffffffffffffffffffffffffffffffffffffffffffffffffffffff826101a4565b6101e986836101a4565b95508019841693508086168417925050509392505050565b5f819050919050565b5f819050919050565b5f61022d61022861022384610201565b61020a565b610201565b9050919050565b5f819050919050565b61024683610213565b61025a61025282610234565b8484546101b0565b825550505050565b5f5f905090565b610271610262565b61027c81848461023d565b505050565b5f5b828110156102a2576102975f828401610269565b600181019050610283565b505050565b601f8211156102f557828211156102f4576102c181610183565b6102ca83610195565b6102d385610195565b60208610156102e0575f90505b8083016102ef82840382610281565b505050505b5b505050565b5f82821c905092915050565b5f6103155f19846008026102fa565b1980831691505092915050565b5f61032d8383610306565b9150826002028217905092915050565b610346826100ef565b67ffffffffffffffff81111561035f5761035e6100f9565b5b6103698254610153565b6103748282856102a7565b5f60209050601f8311600181146103a5575f8415610393578287015190505b61039d8582610322565b865550610404565b601f1984166103b386610183565b5f5b828110156103da578489015182556001820191506020850194506020810190506103b5565b868310156103f757848901516103f3601f891682610306565b8355505b6001600288020188555050505b505050505050565b610128806104195f395ff3fe6080604052348015600e575f5ffd5b50600436106030575f3560e01c806343ede4ae1460345780636057361d14604e575b5f5ffd5b603a6066565b60405160459190608c565b60405180910390f35b606460048036038101906060919060cc565b606c565b005b60015481565b8060018190555050565b5f819050919050565b6086816076565b82525050565b5f602082019050609d5f830184607f565b92915050565b5f5ffd5b60ae816076565b811460b7575f5ffd5b50565b5f8135905060c68160a7565b92915050565b5f6020828403121560de5760dd60a3565b5b5f60e98482850160ba565b9150509291505056fea2646970667358221220597da5d78476c2ce3b7713f5a89ac8851e0ec83fbce5f86c28bfb53e7f14bd9564736f6c63430008230033","linkReferences":{}},"methodIdentifiers":{"favouriteNumber()":"43ede4ae","store(uint256)":"6057361d"},"id":0}