{"abi":[{"type":"function","name":"store","inputs":[{"name":"_favouriteNumber","type":"uint256","internalType":"uint256"}],"outputs":[],"stateMutability":"nonpayable"}],"bytecode":{"object":"0x608060405260015f5f6101000a81548160ff0219169083151502179055506058600155601e60025f6101000a81548163ffffffff021916908360030b63ffffffff1602179055506040518060400160405280600881526020017f6869206c657769730000000000000000000000000000000000000000000000008152506003908161008a919061033e565b50735b38da6a701c568545dcfcb03fcb875f56beddc460045f6101000a81548173ffffffffffffffffffffffffffffffffffffffff021916908373ffffffffffffffffffffffffffffffffffffffff1602179055503480156100ea575f5ffd5b5061040d565b5f81519050919050565b7f4e487b71000000000000000000000000000000000000000000000000000000005f52604160045260245ffd5b7f4e487b71000000000000000000000000000000000000000000000000000000005f52602260045260245ffd5b5f600282049050600182168061016b57607f821691505b60208210810361017e5761017d610127565b5b50919050565b5f819050815f5260205f209050919050565b5f6020601f8301049050919050565b5f82821b905092915050565b5f600883026101e07fffffffffffffffffffffffffffffffffffffffffffffffffffffffffffffffff826101a5565b6101ea86836101a5565b95508019841693508086168417925050509392505050565b5f819050919050565b5f819050919050565b5f61022e61022961022484610202565b61020b565b610202565b9050919050565b5f819050919050565b61024783610214565b61025b61025382610235565b8484546101b1565b825550505050565b5f5f905090565b610272610263565b61027d81848461023e565b505050565b5f5b828110156102a3576102985f82840161026a565b600181019050610284565b505050565b601f8211156102f657828211156102f5576102c281610184565b6102cb83610196565b6102d485610196565b60208610156102e1575f90505b8083016102f082840382610282565b505050505b5b505050565b5f82821c905092915050565b5f6103165f19846008026102fb565b1980831691505092915050565b5f61032e8383610307565b9150826002028217905092915050565b610347826100f0565b67ffffffffffffffff8111156103605761035f6100fa565b5b61036a8254610154565b6103758282856102a8565b5f60209050601f8311600181146103a6575f8415610394578287015190505b61039e8582610323565b865550610405565b601f1984166103b486610184565b5f5b828110156103db578489015182556001820191506020850194506020810190506103b6565b868310156103f857848901516103f4601f891682610307565b8355505b6001600288020188555050505b505050505050565b60da806104195f395ff3fe6080604052348015600e575f5ffd5b50600436106026575f3560e01c80636057361d14602a575b5f5ffd5b60406004803603810190603c9190607e565b6042565b005b8060018190555050565b5f5ffd5b5f819050919050565b6060816050565b81146069575f5ffd5b50565b5f813590506078816059565b92915050565b5f60208284031215609057608f604c565b5b5f609b84828501606c565b9150509291505056fea26469706673582212207433ce78072bb9b124d2b3ce7d1cbc476b221ba2978e37cbe1c5f78d084d1beb64736f6c63430008230033","linkReferences":{}},"methodIdentifiers":{"store(uint256)":"6057361d"},"id":0}