{"abi":[{"type":"function","name":"listOfPeople","inputs":[{"name":"","type":"uint256","internalType":"uint256"}],"outputs":[{"name":"favouriteNumber","type":"uint256","internalType":"uint256"},{"name":"name","type":"string","internalType":"string"}],"stateMutability":"view"},{"type":"function","name":"pat","inputs":[],"outputs":[{"name":"favouriteNumber","type":"uint256","internalType":"uint256"},{"name":"name","type":"string","internalType":"string"}],"stateMutability":"view"},{"type":"function","name":"store","inputs":[{"name":"_favouriteNumber","type":"uint256","internalType":"uint256"}],"outputs":[],"stateMutability":"nonpayable"}],"bytecode":{"object":"0x608060405260015f5f6101000a81548160ff02191690831515021790555060018055601e60025f6101000a81548163ffffffff021916908360030b63ffffffff1602179055506040518060400160405280600881526020017f6869206c657769730000000000000000000000000000000000000000000000008152506003908161008991906103aa565b50735b38da6a701c568545dcfcb03fcb875f56beddc460045f6101000a81548173ffffffffffffffffffffffffffffffffffffffff021916908373ffffffffffffffffffffffffffffffffffffffff1602179055506040518060400160405280600a81526020016040518060400160405280600581526020017f4c6577697300000000000000000000000000000000000000000000000000000081525081525060055f820151815f0155602082015181600101908161014891906103aa565b505050348015610156575f5ffd5b50610479565b5f81519050919050565b7f4e487b71000000000000000000000000000000000000000000000000000000005f52604160045260245ffd5b7f4e487b71000000000000000000000000000000000000000000000000000000005f52602260045260245ffd5b5f60028204905060018216806101d757607f821691505b6020821081036101ea576101e9610193565b5b50919050565b5f819050815f5260205f209050919050565b5f6020601f8301049050919050565b5f82821b905092915050565b5f6008830261024c7fffffffffffffffffffffffffffffffffffffffffffffffffffffffffffffffff82610211565b6102568683610211565b95508019841693508086168417925050509392505050565b5f819050919050565b5f819050919050565b5f61029a6102956102908461026e565b610277565b61026e565b9050919050565b5f819050919050565b6102b383610280565b6102c76102bf826102a1565b84845461021d565b825550505050565b5f5f905090565b6102de6102cf565b6102e98184846102aa565b505050565b5f5b8281101561030f576103045f8284016102d6565b6001810190506102f0565b505050565b601f82111561036257828211156103615761032e816101f0565b61033783610202565b61034085610202565b602086101561034d575f90505b80830161035c828403826102ee565b505050505b5b505050565b5f82821c905092915050565b5f6103825f1984600802610367565b1980831691505092915050565b5f61039a8383610373565b9150826002028217905092915050565b6103b38261015c565b67ffffffffffffffff8111156103cc576103cb610166565b5b6103d682546101c0565b6103e1828285610314565b5f60209050601f831160018114610412575f8415610400578287015190505b61040a858261038f565b865550610471565b601f198416610420866101f0565b5f5b8281101561044757848901518255600182019150602085019450602081019050610422565b868310156104645784890151610460601f891682610373565b8355505b6001600288020188555050505b505050505050565b6103a7806104865f395ff3fe608060405234801561000f575f5ffd5b506004361061003f575f3560e01c80632ebce631146100435780636057361d14610074578063b4a24f5014610090575b5f5ffd5b61005d6004803603810190610058919061023c565b6100af565b60405161006b9291906102e6565b60405180910390f35b61008e6004803603810190610089919061023c565b610164565b005b61009861016e565b6040516100a69291906102e6565b60405180910390f35b600781815481106100be575f80fd5b905f5260205f2090600202015f91509050805f0154908060010180546100e390610341565b80601f016020809104026020016040519081016040528092919081815260200182805461010f90610341565b801561015a5780601f106101315761010080835404028352916020019161015a565b820191905f5260205f20905b81548152906001019060200180831161013d57829003601f168201915b5050505050905082565b8060018190555050565b6005805f01549080600101805461018490610341565b80601f01602080910402602001604051908101604052809291908181526020018280546101b090610341565b80156101fb5780601f106101d2576101008083540402835291602001916101fb565b820191905f5260205f20905b8154815290600101906020018083116101de57829003601f168201915b5050505050905082565b5f5ffd5b5f819050919050565b61021b81610209565b8114610225575f5ffd5b50565b5f8135905061023681610212565b92915050565b5f6020828403121561025157610250610205565b5b5f61025e84828501610228565b91505092915050565b61027081610209565b82525050565b5f81519050919050565b5f82825260208201905092915050565b8281835e5f83830152505050565b5f601f19601f8301169050919050565b5f6102b882610276565b6102c28185610280565b93506102d2818560208601610290565b6102db8161029e565b840191505092915050565b5f6040820190506102f95f830185610267565b818103602083015261030b81846102ae565b90509392505050565b7f4e487b71000000000000000000000000000000000000000000000000000000005f52602260045260245ffd5b5f600282049050600182168061035857607f821691505b60208210810361036b5761036a610314565b5b5091905056fea2646970667358221220abfe5fbeef2678c0bce3fa7e551a4d2107a147a2f1415f8f101fe791ee82875064736f6c63430008230033","linkReferences":{}},"methodIdentifiers":{"listOfPeople(uint256)":"2ebce631","pat()":"b4a24f50","store(uint256)":"6057361d"},"id":0}