{"abi":[{"type":"function","name":"StudentList","inputs":[{"name":"","type":"uint256","internalType":"uint256"}],"outputs":[{"name":"","type":"uint256","internalType":"uint256"}],"stateMutability":"view"},{"type":"function","name":"addStudent","inputs":[{"name":"_studentId","type":"uint256","internalType":"uint256"}],"outputs":[],"stateMutability":"nonpayable"},{"type":"function","name":"getList","inputs":[{"name":"_index","type":"uint256","internalType":"uint256"}],"outputs":[{"name":"","type":"uint256","internalType":"uint256"}],"stateMutability":"view"}],"bytecode":{"object":"0x6080604052348015600e575f5ffd5b506102178061001c5f395ff3fe608060405234801561000f575f5ffd5b506004361061003f575f3560e01c80630cce974a146100435780631ab5b3831461005f57806395bbc64e1461008f575b5f5ffd5b61005d60048036038101906100589190610161565b6100bf565b005b61007960048036038101906100749190610161565b6100e7565b604051610086919061019b565b60405180910390f35b6100a960048036038101906100a49190610161565b61010b565b6040516100b6919061019b565b60405180910390f35b5f81908060018154018082558091505060019003905f5260205f20015f909190919091505550565b5f5f82815481106100fb576100fa6101b4565b5b905f5260205f2001549050919050565b5f8181548110610119575f80fd5b905f5260205f20015f915090505481565b5f5ffd5b5f819050919050565b6101408161012e565b811461014a575f5ffd5b50565b5f8135905061015b81610137565b92915050565b5f602082840312156101765761017561012a565b5b5f6101838482850161014d565b91505092915050565b6101958161012e565b82525050565b5f6020820190506101ae5f83018461018c565b92915050565b7f4e487b71000000000000000000000000000000000000000000000000000000005f52603260045260245ffdfea264697066735822122084b6d575669fdede7551cc120d39fbbc9c4449e91e186518da5d1323202dc92064736f6c63430008230033","linkReferences":{}},"methodIdentifiers":{"StudentList(uint256)":"95bbc64e","addStudent(uint256)":"0cce974a","getList(uint256)":"1ab5b383"},"id":0}